:020000040800F2
:1000000000500020053E0008C5340008D134000827
:10001000D7340008DD340008E33400080000000095
:10002000000000000000000000000000E9340008AB
:10003000F534000800000000013500080D35000807
:10004000553E0008553E0008553E0008553E000844
:10005000553E0008553E0008553E0008553E000834
:10006000553E0008553E0008553E0008553E000824
:10007000553E0008553E0008553E0008553E000814
:10008000553E0008553E0008553E0008553E000804
:10009000553E0008553E0008553E0008553E0008F4
:1000A000553E0008553E0008553E0008553E0008E4
:1000B000553E0008553E0008553E0008553E0008D4
:1000C000553E0008553E0008553E0008553E0008C4
:1000D000553E0008A5320008913300089934000805
:1000E000553E0008553E000800000000553E00083F
:1000F000553E0008553E0008553E0008553E000894
:10010000553E0008553E0008553E0008553E000883
:10011000553E0008553E0008553E0008553E000873
:10012000553E0008553E0008553E0008553E000863
:1001300010B5054C237833B9044B13B10448AFF321
:1001400000800123237010BD240200200000000065
:10015000647C000808B5034B1BB103490348AFF3A7
:10016000008008BD0000000028020020647C000818
:10017000034613F8012B002AFBD1181A01387047E7
:1001800081F0004102E000BF83F0004330B54FEA48
:1001900041044FEA430594EA050F08BF90EA020FB5
:1001A0001FBF54EA000C55EA020C7FEA645C7FEA48
:1001B000655C00F0E2804FEA5454D4EB5555B8BF6B
:1001C0006D420CDD2C4480EA020281EA030382EADC
:1001D000000083EA010180EA020281EA0303362D6E
:1001E00088BF30BD11F0004F4FEA01314FF4801C41
:1001F0004CEA113102D0404261EB410113F0004F53
:100200004FEA03334CEA133302D0524263EB430309
:1002100094EA050F00F0A780A4F10104D5F1200EA7
:100220000DDB02FA0EFC22FA05F2801841F1000102
:1002300003FA0EF2801843FA05F359410EE0A5F1D6
:1002400020050EF1200E012A03FA0EFC28BF4CF007
:10025000020C43FA05F3C01851EBE37101F00045BD
:1002600007D54FF0000EDCF1000C7EEB00006EEBCA
:100270000101B1F5801F1BD3B1F5001F0CD3490854
:100280005FEA30004FEA3C0C04F101044FEA4452AB
:1002900012F5800F80F09A80BCF1004F08BF5FEA32
:1002A000500C50F1000041EB045141EA050130BD12
:1002B0005FEA4C0C404141EB0101013C28BFB1F524
:1002C000801FE9D291F0000F04BF01460020B1FA6F
:1002D00081F308BF2033A3F10B03B3F120020CDA42
:1002E0000C3208DD02F1140CC2F10C0201FA0CF020
:1002F00021FA02F10CE002F11402D8BFC2F1200C85
:1003000001FA02F120FA0CFCDCBF41EA0C0190403A
:10031000E41AA2BF01EB0451294330BD6FEA040483
:100320001F3C1CDA0C340EDC04F11404C4F120026E
:1003300020FA04F001FA02F340EA030021FA04F380
:1003400045EA030130BDC4F10C04C4F1200220FAD7
:1003500002F001FA04F340EA0300294630BD21FA15
:1003600004F0294630BD94F0000F83F4801306BFDB
:1003700081F480110134013D4EE77FEA645C18BFCF
:100380007FEA655C29D094EA050F08BF90EA020F66
:1003900005D054EA000C04BF1946104630BD91EA5E
:1003A000030F1EBF0021002030BD5FEA545C05D161
:1003B0004000494128BF41F0004130BD14F58004A0
:1003C0003CBF01F5801130BD01F0004545F0FE4114
:1003D00041F470014FF0000030BD7FEA645C1ABF49
:1003E000194610467FEA655C1CBF0B46024650EA80
:1003F000013406BF52EA033591EA030F41F40021AC
:1004000030BD00BF90F0000F04BF0021704730B531
:100410004FF4806404F132044FF000054FF0000106
:1004200050E700BF90F0000F04BF0021704730B5C7
:100430004FF4806404F1320410F0004548BF40429C
:100440004FF000013EE700BF42004FEAE2014FEAF1
:1004500031014FEA02701FBF12F07F4393F07F4FCC
:1004600081F06051704732F07F4208BF704793F0CF
:100470007F4F04BF41F40021704730B54FF46074E2
:1004800001F0004521F000411CE700BF50EA0102E5
:1004900008BF704730B54FF000050AE050EA01028E
:1004A00008BF704730B511F0004502D5404261EBFE
:1004B00041014FF4806404F132045FEA915C3FF43F
:1004C000D8AE4FF003025FEADC0C18BF03325FEADC
:1004D000DC0C18BF033202EBDC02C2F1200300FA8D
:1004E00003FC20FA02F001FA03FE40EA0E0021FAB2
:1004F00002F11444BDE600BF70B54FF0FF0C4CF4A0
:10050000E06C1CEA11541DBF1CEA135594EA0C0F51
:1005100095EA0C0F00F0DEF82C4481EA030621EA8C
:100520004C5123EA4C5350EA013518BF52EA0335C7
:1005300041F4801143F4801338D0A0FB02CE4FF079
:100540000005E1FB02E506F00042E0FB03E54FF0A9
:100550000006E1FB03569CF0000F18BF4EF0010EA1
:10056000A4F1FF04B6F5007F64F5407404D25FEA9D
:100570004E0E6D4146EB060642EAC62141EA555150
:100580004FEAC52040EA5E504FEACE2EB4F1FD0C92
:1005900088BFBCF5E06F1ED8BEF1004F08BF5FEA10
:1005A000500E50F1000041EB045170BD06F00046C2
:1005B00046EA010140EA020081EA0301B4EB5C046F
:1005C000C2BFD4EB0C0541EA045170BD41F4801167
:1005D0004FF0000E013C00F3AB8014F1360FDEBF8C
:1005E000002001F0004170BDC4F10004203C35DA68
:1005F0000C341BDC04F11404C4F1200500FA05F3EB
:1006000020FA04F001FA05F240EA020001F000428B
:1006100021F0004110EBD37021FA04F642EB060101
:100620005EEA430E08BF20EAD37070BDC4F10C042B
:10063000C4F1200500FA04F320FA05F001FA04F2EF
:1006400040EA020001F0004110EBD37041F10001DB
:100650005EEA430E08BF20EAD37070BDC4F12005E6
:1006600000FA05F24EEA020E20FA04F301FA05F24E
:1006700043EA020321FA04F001F0004121FA04F2F6
:1006800020EA020000EBD3705EEA430E08BF20EAC6
:10069000D37070BD94F0000F0FD101F00046400000
:1006A00041EB010111F4801F08BF013CF7D041EA82
:1006B000060195F0000F18BF704703F00046520086
:1006C00043EB030313F4801F08BF013DF7D043EA57
:1006D0000603704794EA0C0F0CEA135518BF95EA0D
:1006E0000C0F0CD050EA410618BF52EA4306D1D194
:1006F00081EA030101F000414FF0000070BD50EAB3
:10070000410606BF1046194652EA430619D094EA3C
:100710000C0F02D150EA013613D195EA0C0F05D126
:1007200052EA03361CBF104619460AD181EA03017A
:1007300001F0004141F0FE4141F470014FF0000032
:1007400070BD41F0FE4141F4780170BD70B54FF0CD
:10075000FF0C4CF4E06C1CEA11541DBF1CEA13554D
:1007600094EA0C0F95EA0C0F00F0A7F8A4EB05042F
:1007700081EA030E52EA03354FEA013100F0888026
:100780004FEA03334FF0805545EA131343EA1263EF
:100790004FEA022245EA111545EA10654FEA0026A4
:1007A0000EF000419D4208BF964244F1FD0404F55D
:1007B000407402D25B084FEA3202B61A65EB0305B9
:1007C0005B084FEA32024FF480104FF4002CB6EB76
:1007D000020E75EB030E22BFB61A754640EA0C00F6
:1007E0005B084FEA3202B6EB020E75EB030E22BF36
:1007F000B61A754640EA5C005B084FEA3202B6EB77
:10080000020E75EB030E22BFB61A754640EA9C0035
:100810005B084FEA3202B6EB020E75EB030E22BF05
:10082000B61A754640EADC0055EA060E18D04FEAC3
:10083000051545EA16754FEA06164FEAC30343EA63
:1008400052734FEAC2025FEA1C1CC0D111F4801F30
:100850000BD141EA00014FF000004FF0004CB6E729
:1008600011F4801F04BF01430020B4F1FD0C88BFC8
:10087000BCF5E06F3FF6AFAEB5EB030C04BFB6EBD3
:10088000020C5FEA500C50F1000041EB045170BDC6
:100890000EF0004E4EEA113114EB5C04C2BFD4EBF3
:1008A0000C0541EA045170BD41F480114FF0000E77
:1008B000013C90E645EA060E8DE60CEA135594EAF3
:1008C0000C0F08BF95EA0C0F3FF43BAF94EA0C0FF6
:1008D0000AD150EA01347FF434AF95EA0C0F7FF46B
:1008E00025AF104619462CE795EA0C0F06D152EABF
:1008F00003353FF4FDAE1046194622E750EA4106A3
:1009000018BF52EA43067FF4C5AE50EA41047FF4B3
:100910000DAF52EA43057FF4EBAE12E74FF0FF3C18
:1009200006E000BF4FF0010C02E000BF4FF0010CE9
:100930004DF804CD4FEA410C7FEA6C5C4FEA430C62
:1009400018BF7FEA6C5C1BD001B050EA410C0CBFB1
:1009500052EA430C91EA030F02BF90EA020F002013
:10096000704710F1000F91EA030F58BF994208BF7A
:1009700090422CBFD8176FEAE37040F00100704737
:100980004FEA410C7FEA6C5C02D150EA013C07D18E
:100990004FEA430C7FEA6C5CD6D152EA033CD3D0D9
:1009A0005DF8040B704700BF8446104662468C46D3
:1009B0001946634600E000BF01B5FFF7B7FF002806
:1009C00048BF10F1000F01BD4DF808EDFFF7F4FF2F
:1009D0000CBF012000205DF808FB00BF4DF808EDBA
:1009E000FFF7EAFF34BF012000205DF808FB00BFDD
:1009F0004DF808EDFFF7E0FF94BF012000205DF8FF
:100A000008FB00BF4DF808EDFFF7CEFF94BF0120B3
:100A100000205DF808FB00BF4DF808EDFFF7C4FFAC
:100A200034BF012000205DF808FB00BF4FEA410CF5
:100A30007FEA6C5C02D150EA013C0AD14FEA430CD8
:100A40007FEA6C5C02D152EA033C02D14FF0000015
:100A500070474FF0010070474FEA410212F5001253
:100A600015D211D56FF47873B3EB625212D94FEAF5
:100A7000C12343F0004343EA505311F0004F23FADF
:100A800002F018BF404270474FF00000704750EA34
:100A9000013005D111F0004008BF6FF000407047F1
:100AA0004FF00000704700BF4FEA4102B2F1E0434F
:100AB00024BFB3F5001CDCF1FE5C0DD901F0004C45
:100AC0004FEAC0024CEA5070B2F1004F40EB830095
:100AD00008BF20F00100704711F0804F21D113F1C1
:100AE0003872BCBF01F00040704741F480114FEAFA
:100AF0005252C2F11802C2F1200C10FA0CF320FA83
:100B000002F018BF40F001004FEAC1234FEAD3239F
:100B100003FA0CFC40EA0C0023FA02F34FEA430309
:100B2000CCE77FEA625307D150EA01331EBF4FF092
:100B3000FE4040F44000704701F0004040F0FE40AD
:100B400040F40000704700BF80B500AF154B1B6834
:100B5000144A43F001031360124B5A681149124BB7
:100B600013404B600F4B1B680E4A23F0847323F431
:100B7000803313600B4B1B680A4A23F480231360F5
:100B8000084B5B68074A23F4FE035360054B4FF4A0
:100B90001F029A6000F00CF8044B4FF000629A605C
:100BA00000BF80BD001002400000FFF800ED00E033
:100BB00080B500AF00F002F800BF80BD80B483B004
:100BC00000AF00237B6000233B603A4B1B68394A2F
:100BD00043F480331360374B1B6803F400333B60EE
:100BE0007B6801337B603B68002B03D17B68B3F5E6
:100BF000A06FF0D12F4B1B6803F40033002B02D001
:100C000001233B6001E000233B603B68012B4BD19B
:100C1000294B1B68284A43F010031360264B1B68BE
:100C2000254A23F003031360234B1B68224A43F039
:100C3000020313601F4B1F4A5B6853601D4B1D4A24
:100C40005B6853601B4B5B681A4A43F480635360D4
:100C5000184B5B68174A23F47C135360154B5B6891
:100C6000144A43F4E8135360124B1B68114A43F0D3
:100C70008073136000BF0F4B1B6803F00073002BE1
:100C8000F9D00C4B5B680B4A23F003035360094B0C
:100C90005B68084A43F00203536000BF054B5B6882
:100CA00003F00C03082BF9D100BF0C37BD4680BC04
:100CB000704700BF001002400020024080B483B0A3
:100CC00000AF7860054A7B6843F0BF6343F40033AC
:100CD000D36000BF0C37BD4680BC704700ED00E01C
:100CE00080B487B000AF786000237B6100233B6154
:100CF0000F23FB607B68DB78002B3AD0274BDB6847
:100D0000DB431B0A03F007037B617B69C3F1040328
:100D10003B61FA687B6922FA03F3FB607B685B78CE
:100D20001A463B6902FA03F37B617B689B781A469B
:100D3000FB6813407A6913437B617B691B017B610C
:100D4000174A7B681B787969C9B213440A4683F84D
:100D500000237B681B7803F01F0311497A6812781F
:100D60005209D2B21046012202FA03F341F82030B0
:100D70000FE07B681B7803F01F0309497A6812783B
:100D80005209D2B2104601229A4000F1200341F8E4
:100D9000232000BF1C37BD4680BC704700ED00E03B
:100DA00000E100E080B489B000AF786039600023D2
:100DB000FB6100233B610023BB610023FB60002338
:100DC0007B610023BB603B68DB7803F00F03FB61B2
:100DD0003B68DB7803F01003002B05D03B689B7861
:100DE0001A46FB691343FB613B681B88DBB2002B8F
:100DF00044D07B681B687B610023BB6138E0012223
:100E0000BB6902FA03F3FB603B681B881A46FB6868
:100E100013403B613A69FB689A4226D1BB699B004B
:100E2000FB600F22FB6802FA03F3BB60BB68DB4385
:100E30007A6913407B61FA69FB6802FA03F37A6905
:100E400013437B613B68DB78282B05D10122BB690A
:100E50009A407B685A6108E03B68DB78482B04D1F4
:100E60000122BB699A407B681A61BB690133BB618F
:100E7000BB69072BC3D97B687A691A603B681B88FA
:100E8000FF2B46D97B685B687B610023BB613AE03E
:100E9000BB690833012202FA03F3FB603B681B883D
:100EA0001A46FB6813403B613A69FB689A4227D1B6
:100EB000BB699B00FB600F22FB6802FA03F3BB6077
:100EC000BB68DB437A6913407B61FA69FB6802FA0D
:100ED00003F37A6913437B613B68DB78282B05D1E8
:100EE000BB69083301229A407B685A613B68DB7812
:100EF000482B05D1BB69083301229A407B681A61EF
:100F0000BB690133BB61BB69072BC1D97B687A69B7
:100F10005A6000BF2437BD4680BC704780B485B09E
:100F200000AF78600B467B800023FB737B689A6878
:100F30007B881340002B02D00123FB7301E00023C8
:100F4000FB73FB7B18461437BD4680BC704780B4EA
:100F500083B000AF78600B467B807A887B681A612B
:100F600000BF0C37BD4680BC704780B483B000AF73
:100F700078600B467B807A887B685A6100BF0C37AB
:100F8000BD4680BC7047000080B487B000AF786079
:100F90000B46FB7000233B610023FB6000237B6159
:100FA0000023BB607B68002B03DA2E4BDB697B617F
:100FB00002E02C4B5B687B617B681B0C03F00F032A
:100FC000BB607B689BB23B617B6803F44013B3F565
:100FD000401F0AD17B6923F070637B61214B5B6802
:100FE000204A23F07063536021E07B6803F4801390
:100FF000002B0ED00322BB6802FA03F3FB60FB68F0
:10100000DB437A6913407B617B6943F070637B61EA
:101010000DE07B685B0D1B013A6902FA03F3DB43C9
:101020007A6913407B617B6943F070637B61FB7875
:10103000002B08D07B685B0D1B013A6902FA03F3B1
:101040007A6913437B617B68002B03DA054A7B696D
:10105000D36102E0034A7B69536000BF1C37BD4681
:1010600080BC70470000014080B58AB000AF786056
:1010700039600023FB8400237B840423BB84574B0B
:10108000FB617B689B88FB84FB8C23F03F03FB8424
:1010900007F10803184600F061F93B69FB61FB6941
:1010A0004F4AA2FB03239B0C7B84FA8C7B8C13435B
:1010B000FB847B68FA8C9A807B681B889BB223F048
:1010C00001039AB27B681A800023FB843B681B688B
:1010D000444A934215D83B681B685B00FA69B2FB2F
:1010E000F3F3BB84BB8C032B01D80423BB84FA8CA1
:1010F000BB8C1343FB847B8C01339AB27B681A84CC
:1011000040E03B68DB884BF6FF72934209D13B68B5
:101110001A6813465B001344FA69B2FBF3F3BB840D
:101120000EE03B681A6813469B0013449A00134470
:10113000FA69B2FBF3F3BB84BB8C43F48043BB84FA
:10114000BB8CC3F30B03002B03D1BB8C43F0010317
:10115000BB84BA8CFB8C13439BB26FEA43436FEAA8
:101160005343FB847B8C4FF4967202FB03F31E4ABD
:1011700082FB03129211DB17D31A9BB201339AB28E
:101180007B681A847B68FA8C9A837B681B889BB285
:1011900043F001039AB27B681A807B681B88FB844A
:1011A000FB8C23F4816323F00203FB843B689A8861
:1011B0003B685B8913439AB2FB8C1343FB847B68C7
:1011C000FA8C1A803B689A893B681B8913439AB250
:1011D0007B681A8100BF2837BD4680BD00127A00A7
:1011E00083DE1B43A0860100D34D621080B483B020
:1011F00000AF78600B46FB70FB78002B08D07B6853
:101200001B889BB243F001039AB27B681A8007E007
:101210007B681B889BB223F001039AB27B681A801B
:1012200000BF0C37BD4680BC704780B483B000AFB0
:1012300078600B46FB70FB78002B08D07B681B881E
:101240009BB243F480739AB27B681A8007E07B6894
:101250001B889BB223F480739AB27B681A8000BF0C
:101260000C37BD4680BC704780B483B000AF786057
:101270000B46FB70FB78002B08D07B681B889BB269
:1012800043F400739AB27B681A8007E07B681B887E
:101290009BB223F400739AB27B681A8000BF0C37AC
:1012A000BD4680BC704780B483B000AF78600B4609
:1012B000FB70FB789AB27B681A8200BF0C37BD4680
:1012C00080BC704780B483B000AF78600B46FB7081
:1012D0001346BB70BB78002B04D0FB7843F00103AE
:1012E000FB7003E0FB7823F00103FB70FB789AB2FC
:1012F0007B681A8200BF0C37BD4680BC704780B443
:1013000087B000AF7860396000233B610023FB6049
:101310000023BB600023FB757B689B8A9BB2FB604C
:101320007B681B8B9BB2BB60BB681B04BB60FA680D
:10133000BB68134323F07F433B613A693B6813402A
:101340003A689A4202D10123FB7501E00023FB7544
:10135000FB7D18461C37BD4680BC704780B487B003
:1013600000AF786000237B6100233B610023FB60BA
:101370000023BB604F4B5B6803F00C037B617B6910
:10138000082B11D07B69082B3AD87B69002B03D03E
:101390007B69042B04D033E07B68474A1A6033E052
:1013A0007B68454A1A602FE0424B5B6803F4701378
:1013B0003B61404B5B6803F48033FB603B699B0CF3
:1013C00002333B61FB68002B06D13B693B4A03FBC0
:1013D00002F27B681A6017E0364B5B6803F4003357
:1013E000002B06D03B69354A03FB02F27B681A608A
:1013F0000AE03B69304A03FB02F27B681A6003E0B3
:101400007B682D4A1A6000BF2A4B5B6803F0F0032B
:101410007B617B691B097B61294A7B6913441B78CB
:10142000DBB2BB607B681A68BB68DA407B685A60D5
:10143000204B5B6803F4E0637B617B691B0A7B6183
:101440001F4A7B6913441B78DBB2BB607B685A6818
:10145000BB68DA407B689A60164B5B6803F46053A4
:101460007B617B69DB0A7B61154A7B6913441B78CE
:10147000DBB2BB607B685A68BB68DA407B68DA60C5
:101480000C4B5B6803F440437B617B699B0B7B6186
:101490000C4A7B6913441B78DBB2BB607B68DA685B
:1014A000BB68B2FBF3F27B681A6100BF1C37BD4614
:1014B00080BC70470010024000127A0000093D0015
:1014C000040000201400002080B483B000AF7860D6
:1014D0000B46FB70FB78002B06D0094B9A69084934
:1014E0007B6813438B6106E0054B9A697B68DB439D
:1014F000034913408B6100BF0C37BD4680BC704769
:101500000010024080B483B000AF78600B46FB70DF
:10151000FB78002B06D0094BDA6908497B68134336
:10152000CB6106E0054BDA697B68DB430349134076
:10153000CB6100BF0C37BD4680BC70470010024035
:1015400080B58CB000AF786039600023FB62002367
:10155000BB6200237B6200233B620023FB617B684C
:10156000FB617B681B8A9BB2FB62FA6A4CF6FF73D5
:101570001340FB623B68DB881A46FB6A1343FB623D
:10158000FB6A9AB27B681A827B689B899BB2FB627A
:10159000FA6A4EF6F3131340FB623B689A883B6885
:1015A0001B8913439AB23B685B8913439BB21A466B
:1015B000FB6A1343FB62FB6A9AB27B689A817B6881
:1015C0009B8A9BB2FB62FA6A4FF6FF431340FB62B1
:1015D0003B689B891A46FB6A1343FB62FB6A9AB21B
:1015E0007B689A8207F108031846FFF7B7FEFB698C
:1015F0002E4A934202D17B69BB6201E03B69BB6228
:101600007B689B899BB21BB2002B0CDABA6A13462B
:101610009B0013449A001A443B681B685B00B2FBB2
:10162000F3F37B620BE0BA6A13469B0013449A0003
:101630001A443B681B689B00B2FBF3F37B627B6A36
:101640001B4AA2FB03235B091B01FB62FB6A1B090C
:10165000642202FB03F37A6AD31A3B627B689B899C
:101660009BB21BB2002B0CDA3B6ADB003233104A10
:10167000A2FB03235B0903F00703FA6A1343FB622F
:101680000BE03B6A1B013233094AA2FB03235B09CF
:1016900003F00F03FA6A1343FB62FB6A9AB27B689A
:1016A0001A8100BF3037BD4680BD00BF0038014001
:1016B0001F85EB5180B483B000AF78600B46FB70A0
:1016C000FB78002B08D07B689B899BB243F40053C6
:1016D0009AB27B689A8107E07B689B899BB223F46E
:1016E00000539AB27B689A8100BF0C37BD4680BC1C
:1016F000704780B487B000AF78600B467B8013469C
:101700007B7000233B610023FB600023BB60002350
:101710007B617B687B617B88DBB25B09DBB23B6111
:101720007B8803F01F03FB600122FB6802FA03F3CE
:10173000BB603B69012B03D17B690C337B6109E002
:101740003B69022B03D17B6910337B6102E07B692B
:1017500014337B617B78002B06D07B6919687B6929
:10176000BA680A431A6006E07B691968BB68DA4305
:101770007B690A401A6000BF1C37BD4680BC7047B9
:1017800080B483B000AF78600B467B807B88C3F366
:1017900008039AB27B689A8000BF0C37BD4680BCB4
:1017A000704780B483B000AF78607B689B889BB241
:1017B000C3F308039BB218460C37BD4680BC704784
:1017C00080B485B000AF78600B467B800023FB734C
:1017D0007B681B889AB27B8813409BB2002B02D097
:1017E0000123FB7301E00023FB73FB7B18461437D6
:1017F000BD4680BC704780B483B000AF78600B46B4
:101800007B807B88DB439AB27B681A8000BF0C37F1
:10181000BD4680BC704780B487B000AF78600B468F
:101820007B800023FB6000237B610023BB600023DF
:10183000FB747B88DBB25B09DBB2BB607B8803F0A7
:101840001F037B6101227B6902FA03F37B61BB68A2
:10185000012B07D17B689B899BB21A467B69134099
:101860007B6111E0BB68022B07D17B681B8A9BB2AE
:101870001A467B6913407B6106E07B689B8A9BB2BA
:101880001A467B6913407B617B881B0A9BB2FB6015
:101890000122FB6802FA03F3FB607B681B889BB2A2
:1018A0001A46FB681340FB607B69002B05D0FB6880
:1018B000002B02D00123FB7401E00023FB74FB7CAE
:1018C00018461C37BD4680BC704780B485B000AF59
:1018D00078600B467B800023FB810023BB817B88E3
:1018E0001B0AFB81FB89012202FA03F3BB81BB893E
:1018F000DB439AB27B681A8000BF1437BD4680BCB8
:101900007047000080B582B000AF7860074801F0F2
:10191000D5FF0649786801F0A5FF40F2DC5000F0E1
:10192000C9FE00BF0837BD4680BD00BF004800406B
:1019300080B582B000AF7860094801F0BFFF084968
:10194000786801F08FFF00BF0549064802F0E2F811
:101950000346002BF8D000BF00BF0837BD4680BD4E
:1019600000480040807C000880B58AB000AF7860F5
:101970007868FEF7FDFB024607F108030A4918469E
:1019800002F08EFF094801F099FF07F108030749AB
:10199000184601F067FF40F2DC5000F08BFE00BFFC
:1019A0002837BD4680BD00BF887C00080048004045
:1019B00090B5ADF5377D02AF07F53474A4F53174F9
:1019C000206007F53470A0F53270016007F53471BE
:1019D000A1F533710A6007F53472A2F53472136011
:1019E0004FF4FA7000F066FED7F8E432002B1DD1F8
:1019F00000BF00E000BF3448FFF784FF3348FFF723
:101A000081FF07F53473A3F5327307F53472A2F53D
:101A1000317207F1DC001B6812682D4902F040FFAB
:101A200007F1DC031846FFF783FF00E000BF07F56E
:101A30003473A3F5347307F53472A2F5337207F1EA
:101A4000DC001B681268234902F02AFF07F1DC035F
:101A50001846FFF757FF00BF1F49204802F05AF809
:101A60000346002BC6D0D7F8E002FEF781FB014603
:101A700007F53473A3F5347307F53472A2F53372A6
:101A800007F1140000911B681268154902F008FF65
:101A900007F1140207F1DC00D7F8E032114902F037
:101AA000FFFE07F1DC031846FFF75EFF07F1DC03DA
:101AB0001846FFF727FF0C48FFF724FF00BF07F584
:101AC0003577BD4690BD00BF987C0008A47C000817
:101AD000B47C0008CC7C000800480040807C0008F2
:101AE000EC7C00084C7D0008547D00082DE9B043D3
:101AF0008EB000AF786039605B4B00221A60002323
:101B00007B6304E0584B1B680133574A1360564B04
:101B10001B681A467B6813441B782C2BF2D1524B5E
:101B20001B680133504A136004E04F4B1B680133BC
:101B30004D4A13604C4B1B681A467B6813441B7854
:101B40002C2BF2D1484B1B680133474A136004E049
:101B5000454B1B680133444A1360434B1B681A46CC
:101B60007B6813441B782C2BF2D13F4B1B6801334D
:101B70003D4A136004E03C4B1B6801333A4A136052
:101B8000394B1B681A467B6813441B782C2BF2D107
:101B9000354B1B680133344A136004E0324B1B6839
:101BA0000133314A1360304B1B681A467B6813447B
:101BB0001B782C2BF2D12C4B1B6801332A4A136063
:101BC00004E0294B1B680133274A1360264B1B682E
:101BD0001A467B6813441B782C2BF2D1224B1B68CE
:101BE0000133214A1360204B1B681A467B6813445B
:101BF0001B78312B0FD01C4B1B681A467B68134493
:101C00001B78322B07D0184B1B681A467B6813448D
:101C10001B78362B06D13B680122DA61124B002279
:101C20001A6009E03B680022DA61012300E30E4BF1
:101C30001B6801330C4A13600B4B1B681A467B6808
:101C400013441B782C2BF2D1074B1B680133064A37
:101C5000136007F10C030C220021184602F02AF948
:101C600000237B6316E000BF40020020AA4B1B68E4
:101C70001A467B681344197807F10C027B6B1344F6
:101C80000A461A707B6B01337B63A34B1B680133DD
:101C9000A14A1360A04B1B681A467B6813441B784B
:101CA0002C2BE3D107F10C03184602F0D4F80346BD
:101CB0009A4A82FB03121213DB17D21A984B1B6845
:101CC000984981FB03014911DB17CB1A1344964A4B
:101CD000136007F10C03184602F0BDF80346914A61
:101CE00082FB03125211DB17D31A8E4A82FB0312B6
:101CF0005111DA178A1A642101FB02F29A1A884BF1
:101D00001968884B83FB01035811CB17C31A642051
:101D100000FB03F3CB1A1344844A1360834B1B6804
:101D20003B2B09DD814B1B683C3B804A13607E4B9B
:101D30001B6801337C4A13607B4B1B68002B09DA5C
:101D4000794B1B681833784A1360794B1B68013B49
:101D5000774A1360744B1B68172B09DD724B1B68A5
:101D6000183B714A1360724B1B680133704A136051
:101D70006D4B1A683B681A616C4B1A683B685A6174
:101D800007F10C03184602F066F80246654B83FB28
:101D900002135911D317CB1A642101FB03F3D31A91
:101DA0003A6893615C4B1B6801335B4A136007F12F
:101DB0000C030C220021184602F07CF800237B6300
:101DC00013E0554B1B681A467B681344197807F1DA
:101DD0000C027B6B13440A461A707B6B01337B63E6
:101DE0004D4B1B6801334C4A13604B4B1B681A4622
:101DF0007B6813441B782C2BE3D107F10C031846A6
:101E0000FEF7B6F90346052B01D8022310E207F1CD
:101E10000C03184602F01FF80346FB8500233B63C2
:101E200002E03B6B01333B6307F10C023B6B134455
:101E30001B782E2BF5D13B6B01333B6307F10C0371
:101E40001846FEF795F902463B6BD31ABB623B6B13
:101E500007F10C021344184601F0FDFF7862B7F950
:101E60002E301846FEF7DEFA4FF00002314BFEF737
:101E70006DFC02460B4690469946786AFEF7D2FA08
:101E800004460D46BB6A02331846FEF7CBFA0246FB
:101E90000B464FF00000284905F002F84FF0000211
:101EA000264BFEF729FB02460B4620462946FEF745
:101EB0004DFC02460B4640464946FEF767F902468E
:101EC0000B46C7E90623D7E90601FEF7EDFD0246FA
:101ED0003B681A60104B1B6801330F4A13600E4BAE
:101EE0001B681A467B6813441A783B681A710A4BC0
:101EF0001B680133084A1360074B1B680133064A0D
:101F0000136007F10C030C220021184601F0D2FFE8
:101F100000237B6328E000BF40020020AD8BDB681C
:101F2000180000201F85EB514402002048020020C9
:101F300058020020000059400000244000004E409C
:101F40008A4B1B681A467B681344197807F10C0208
:101F50007B6B13440A461A707B6B01337B63834BA4
:101F60001B680133814A1360804B1B681A467B68EB
:101F700013441B782C2BE3D107F10C03184601F016
:101F80006AFF0346FB8500233B6302E03B6B0133A2
:101F90003B6307F10C023B6B13441B782E2BF5D1EE
:101FA0003B6B01333B6307F10C031846FEF7E0F887
:101FB00002463B6BD31ABB623B6B07F10C02134426
:101FC000184601F048FF7862B7F92E301846FEF740
:101FD00029FA4FF00002664BFEF7B8FB02460B46AB
:101FE00090469946786AFEF71DFA04460D46BB6A8C
:101FF00002331846FEF716FA02460B464FF0000071
:102000005C4904F04DFF4FF000025B4BFEF774FAA1
:1020100002460B4620462946FEF798FB02460B4631
:1020200040464946FEF7B2F802460B46C7E906238A
:10203000D7E90601FEF738FD02463B689A604B4B34
:102040001B680133494A1360484B1B681A467B687A
:1020500013441A783B681A73444B1B680133434A94
:102060001360424B1B680133404A13603F4B1B68AF
:1020700001333E4A13603D4B1B6801333B4A1360FA
:1020800007F10C030C220021184601F013FF002376
:102090007B6313E0354B1B681A467B681344197841
:1020A00007F10C027B6B13440A461A707B6B0133F9
:1020B0007B632E4B1B6801332C4A13602B4B1B6830
:1020C0001A467B6813441B782C2BE3D107F10C03D1
:1020D000184601F0C0FE02463B689A62234B1B681B
:1020E0000133224A136004E0204B1B6801331F4A6E
:1020F00013601E4B1B681A467B6813441B782C2BFD
:10210000F2D11A4B1B680133184A136007F10C0314
:102110000C220021184601F0CDFE00237B6313E062
:10212000124B1B681A467B681344197807F10C029E
:102130007B6B13440A461A707B6B01337B630B4B3A
:102140001B680133094A1360084B1B681A467B68F9
:1021500013441B782C2BE3D107F10C03184601F034
:102160007AFE0346FB8500233B630AE04002002021
:10217000000059400000244000004E403B6B0133FA
:102180003B6307F10C023B6B13441B782E2BF5D1FC
:102190003B6B01333B6307F10C031846FDF7E8FF87
:1021A00002463B6BD31ABB623B6B07F10C02134434
:1021B000184601F050FE7862B7F92E301846FEF747
:1021C00031F904460D46786AFEF72CF980468946B7
:1021D000B86AFEF727F902460B464FF00000174990
:1021E00004F05EFE02460B4640464946FEF7AEFA54
:1021F00002460B4620462946FDF7C8FF02460B461D
:10220000C7E90623D7E90601FEF74EFC02463B6804
:102210001A620B4B1B680133094A1360084B1B6899
:102220001A467B6813441A783B6883F824200023FD
:1022300018463837BD46BDE8B08300BF00002440D3
:10224000400200202DE9B04394B000AF78603960BF
:10225000924B00221A600023FB6404E08F4B1B6842
:1022600001338E4A13608D4B1B681A467B681344FA
:102270001B782C2BF2D1894B1B680133874A1360E2
:1022800004E0864B1B680133844A1360834B1B6850
:102290001A467B6813441B782C2BF2D17F4B1B68AA
:1022A00001337E4A13607D4B1B681A467B681344DA
:1022B0001B78412B0DD13B6801225A61774B1B687B
:1022C0000133764A1360754B1B680133734A136000
:1022D00009E03B6800225A610123D5E16F4B1B687E
:1022E00001336E4A13606D4B1B681A467B681344BA
:1022F0001B782C2BF2D1694B1B680133674A1360A2
:1023000004E0664B1B680133644A1360634B1B682F
:102310001A467B6813441B782C2BF2D15F4B1B6849
:1023200001335E4A136004E05C4B1B6801335B4A77
:1023300013605A4B1B681A467B6813441B782C2B7E
:10234000F2D1564B1B680133544A136004E0534BDF
:102350001B680133514A1360504B1B681A467B6857
:1023600013441B782C2BF2D14C4B1B6801334B4A86
:1023700013600023FB6407F10C030C2200211846B4
:1023800001F098FD13E0454B1B681A467B68134427
:10239000197807F10C02FB6C13440A461A70FB6CA7
:1023A0000133FB643D4B1B6801333C4A13603B4BDC
:1023B0001B681A467B6813441B782C2BE3D107F16A
:1023C0000C031B78002B56D007F10C03184601F0C4
:1023D00042FD0346A7F842300023BB6402E0BB6C19
:1023E0000133BB6407F10C02BB6C13441B782E2B2A
:1023F000F5D1BB6C0133BB6407F10C031846FDF744
:10240000B7FE0246BB6CD31AFB63BB6C07F10C0230
:102410001344184601F01FFDB863B7F9423018465F
:10242000FEF700F804460D46B86BFDF7FBFF80464B
:102430008946F86BFDF7F6FF02460B464FF00000A9
:10244000174904F02DFD02460B4640464946FEF76B
:102450007DF902460B4620462946FDF797FE0246C7
:102460000B46C7E90C23D7E90C01FEF71DFB02461A
:102470003B68DA6003E03B684FF00002DA60074B2C
:102480001B680133054A13600023FB6407F10C034A
:102490000C220021184601F00DFD17E0400200203B
:1024A000000024407B4B1B681A467B681344197854
:1024B00007F10C02FB6C13440A461A70FB6C0133E3
:1024C000FB64744B1B680133724A1360714B1B68C9
:1024D0001A467B6813441B782C2BE3D107F10C03BD
:1024E0001B78002B55D007F10C03184601F0B3FC04
:1024F0000346FB8500237B6402E07B6C01337B6435
:1025000007F10C027B6C13441B782E2BF5D17B6CEE
:1025100001337B6407F10C031846FDF729FE0246E0
:102520007B6CD31ABB627B6C07F10C021344184618
:1025300001F091FC7862B7F92E301846FDF772FF72
:1025400004460D46786AFDF76DFF80468946B86AF5
:10255000FDF768FF02460B464FF000004E4904F0BD
:102560009FFC02460B4640464946FEF7EFF80246FE
:102570000B4620462946FDF709FE02460B46C7E9F1
:102580000623D7E90601FEF78FFA02463B681A6177
:1025900003E03B684FF000021A613E4B1B680133B9
:1025A0003C4A13600023FB6407F10C030C2200215A
:1025B000184601F07FFC13E0364B1B681A467B6817
:1025C0001344197807F10C02FB6C13440A461A7085
:1025D000FB6C0133FB642F4B1B6801332D4A1360E6
:1025E0002C4B1B681A467B6813441B782C2BE3D1B9
:1025F00007F10C03184601F02EFC0346274A82FB24
:1026000003121213DB17D31A254A136007F10C03C8
:10261000184601F020FC0346224A82FB03125211A5
:10262000DB17D21A1F4B83FB02135911D317CB1A96
:10263000642101FB03F3D31A1B4A136007F10C0357
:10264000184601F008FC0246164B83FB0213591191
:10265000D317CB1A642101FB03F3D31A134A136077
:102660000F4B1A68124B1B6813440D4A13600C4B36
:102670001A683B681A600C4B1A683B685A600B4B2F
:102680001A683B689A60002318465037BD46BDE87B
:10269000B08300BF4002002000002440AD8BDB6807
:1026A0004C0200201F85EB515002002054020020F4
:1026B0005802002080B485B000AF78600023FB6032
:1026C0000DE00023BB6002E0BB680133BB60BB6868
:1026D00041F287329342F7D9FB680133FB60FA6815
:1026E0007B689A42EDD300BF00BF1437BD4680BC63
:1026F0007047000080B582B000AF0346FB71012136
:102700001648FEF792FD00BF15491448FEF7F7FD85
:102710000346002BF8D000224E211048FEF7D2FDD0
:1027200000BF10490D48FEF7EAFD0346002BF8D024
:10273000FB7919460948FEF7B6FD00BF0A4907486C
:10274000FEF7DDFD0346002BF8D001210348FEF71C
:102750008BFD00BF0837BD4680BD00BF0054004060
:1027600001000300820007008400070080B586B0E6
:1027700000AF01214FF40010FEF7C4FE0121082034
:10278000FEF7A2FEC023BB820323BB751C23FB758F
:1027900007F1140319461148FEF704FB00233B819F
:1027A0004BF6FF737B810023BB810023FB814FF439
:1027B00080433B8242F210737B603B1D1946084800
:1027C000FEF752FC01210648FEF710FD054802F015
:1027D0005FF800BF1837BD4680BD00BF000C014048
:1027E00000540040647D000880B500AFFFF7BEFFD5
:1027F000184802F04DF8332000F068F8164802F04F
:1028000047F80A20FFF756FF322000F05FF8322029
:10281000FFF750FF282000F059F83220FFF74AFF59
:10282000012000F053F83220FFF744FF062000F0AB
:102830004DF83220FFF73EFF0C2000F047F8322021
:10284000FFF738FF022000F041F83220FFF732FF97
:1028500000BF80BD687D00086C7D000880B584B035
:1028600000AF0346FB710023FB73FB7923F00F03DA
:10287000BB73FB791B017B73BB7B43F00D03DBB2A6
:102880003B72BB7B43F00903DBB27B727B7B43F083
:102890000D03DBB2BB727B7B43F00903DBB2FB723F
:1028A0000023FB730AE0FB7B10333B4413F8083C26
:1028B0001846FFF71FFFFB7B0133FB73FB7B032BEA
:1028C000F1D900BF00BF1037BD4680BD80B584B0D0
:1028D00000AF0346FB710023FB73FB7923F00F036A
:1028E000BB73FB791B017B73BB7B43F00403DBB23F
:1028F0003B72BB7B7B727B7B43F00403DBB2BB721E
:102900007B7B43F00803DBB2FB720023FB730AE01E
:10291000FB7B10333B4413F8083C1846FFF7EAFEF4
:10292000FB7B0133FB73FB7B032BF1D900BF00BFA3
:102930001037BD4680BD80B582B000AF786006E03C
:102940007B685A1C7A601B781846FFF787FF7B6804
:102950001B78002BF4D100BF00BF0837BD4680BDF7
:1029600080B500AF0120FFF7B1FF0A20FFF7A2FEFC
:1029700000BF80BD80B500AFC020FFF7A7FF0A20D1
:10298000FFF798FE00BF80BD80B500AF1021104852
:10299000FEF7C4FA0346002B14D020210C48FEF7A2
:1029A000BDFA0346002B0DD040210948FEF7B6FAC8
:1029B0000346002B06D080210548FEF7AFFA0346F8
:1029C000002B01D1012300E00023184680BD00BF89
:1029D0000008014080B582B000AF01210820FEF759
:1029E00073FD01210420FEF76FFD1023FB714FF4EE
:1029F0007043BB800323BB713B1D19460848FEF79B
:102A0000D1F9F023BB804823FB710323BB713B1D2D
:102A100019460448FEF7C6F900BF0837BD4680BD19
:102A2000000C01400008014080B582B000AF0346B1
:102A3000FB714FF480511C48FEF789FA4FF40051A6
:102A40001948FEF784FA4FF480411748FEF77FFAE1
:102A50004FF400411448FEF77AFAFB79002B05D1B8
:102A60004FF480511048FEF780FA19E0FB79012BF2
:102A700005D14FF400510C48FEF777FA10E0FB79CE
:102A8000022B05D14FF480410748FEF76EFA07E0AC
:102A9000FB79032B04D14FF400410348FEF765FA9C
:102AA00000BF0837BD4680BD000C014080B582B034
:102AB00000AF4FF480513048FEF757FA4FF4005101
:102AC0002D48FEF752FA4FF480412B48FEF74DFA9D
:102AD0004FF400412848FEF748FAFFF755FF034638
:102AE000012B43D10A20FFF7E5FDFFF74DFF034619
:102AF000012B3BD10023FB7135E0FB791846FFF732
:102B000093FF10211D48FEF709FA0346002B03D15D
:102B1000FB791B4AD35C2AE020211848FEF7FEF916
:102B20000346002B04D1FB79154A13441B791EE0A0
:102B300040211248FEF7F2F90346002B04D1FB793D
:102B40000F4A13441B7A12E080210C48FEF7E6F985
:102B50000346002B04D1FB79094A13441B7B06E092
:102B6000FB790133FB71FB79032BC6D9002318468F
:102B70000837BD4680BD00BF000C01400008014081
:102B80001C00002080B483B000AF03463960FB71A5
:102B900097F90730002B0BDA3B68DAB20C49FB7966
:102BA00003F00F03043B1201D2B20B441A7609E082
:102BB0003B68DAB2074997F907301201D2B20B44E9
:102BC00083F8002300BF0C37BD4680BC704700BFB0
:102BD00000ED00E000E100E080B582B000AF786079
:102BE0007B68B3F1807F01D3012311E07B6823F080
:102BF0007F43094A013B53600F214FF0FF30FFF73D
:102C0000C1FF054B00229A60034B07221A60002384
:102C100018460837BD4680BD10E000E080B586B09C
:102C200000AFF860B9607A6000237B6113E0BA6896
:102C30007B6913441B789BB219460B48FEF7A0FD35
:102C400000BF40210848FEF7BBFD0346002BF8D02B
:102C50007B6901337B617B687A699A42E7D37B6841
:102C600018461837BD4680BD0044004080B582B08C
:102C700000AF0346FB71FB799BB219460748FEF78C
:102C80007FFD00BF40210548FEF79AFD0346002B5B
:102C9000F8D000BF00BF0837BD4680BD00440040EB
:102CA0002DE9F04FADF5177D0EAF00F069FA00F099
:102CB00083FA834801F0ECFDFFF796FDFFF750FE25
:102CC0008048FFF738FEFFF755FE7F48FFF733FED9
:102CD0000023C7F80C3207F5047300221A605A600B
:102CE0009A60002387F81F32002387F81E32FFF70F
:102CF000DDFE034687F81E329620FFF7DBFC97F8CF
:102D00001E32002B00F0988097F81E322A2B15D126
:102D10006E4B1B68002B11D16C4B01221A600023F3
:102D200087F81F326A4B00221A60FFF719FE6948C4
:102D3000FFF701FE684801F025FD7DE097F81E329F
:102D40002A2B18D0614B1B68002B14D15F4B00223B
:102D50001A60002387F81F325D4B00221A6000239F
:102D600087F81F32FFF7FCFD5C48FFF7E4FD5C4885
:102D700001F008FD60E097F81E322A2B21D197F868
:102D80001F320F2B19D9574801F082FD07F5037345
:102D90001946554801F0F6FC97F81F3203F5027307
:102DA00007F118021344002203F8142C484B0122A7
:102DB0001A60464B00221A6028E04C4801F068FD7A
:102DC00024E097F81E32232B0CD1494801F060FD16
:102DD00097F81F32002B19D097F81F32013B87F864
:102DE0001F3213E097F81F3203F5027307F1180240
:102DF000134497F81E2203F8142C97F81F320F2B58
:102E000004D897F81F32013387F81F3297F81F3222
:102E100003F5027307F118021344002203F8142C7F
:102E2000FFF79EFD07F503731846FFF784FD07F5CE
:102E30000373184601F02CFD254B1B68012B7FF412
:102E400056AF2C492C4800F065FE0346012B19D1E2
:102E50002A4801F01DFD2A4B41F288321A60254AAA
:102E60002849294800F0A0FD28492648FEF73EFEE3
:102E70000346002B03D1264B02221A6002E0244BAA
:102E800001221A601B49234800F044FE0346012B2F
:102E90004DD1214801F0FCFC194B41F288321A60F7
:102EA000144A1E49184800F07FFD1D491B48FFF7D2
:102EB000C9F90346002B37D11A4B02221A6036E0BB
:102EC0008C7D0008A47D0008B87D0008A4030020C4
:102ED000A8030020C87D0008DC7D0008F07D000804
:102EE000047E0008187E0008287E0008347E000852
:102EF000487E000800380140547E00085C7E0008CF
:102F0000500000205C020020687E0008240300209E
:102F1000680300206C7E0008747E0008C002002058
:102F2000500300206C030020814B01221A60814B6A
:102F30001B68022B0CBF01230023DAB27C4B1B68F9
:102F4000022B0CBF01230023DBB21343DBB2002BA7
:102F500000F0A980FFF704FD774B1C69764B5D6993
:102F6000754B9B69744AD26A7349096B7248406B0E
:102F700003900291019200932B4622466F497048BC
:102F800001F08EFC6E48FFF7D6FC322200216C481F
:102F900000F090FFFFF7EEFC674B1B681846FDF74B
:102FA00053FA04460D46644B1B791E46624B9B68E0
:102FB0001846FDF749FA02460B465F49097B049122
:102FC000CDE90223009622462B465E495C4801F07B
:102FD00067FC5B48FFF7AFFC574B5B6B7B61564B65
:102FE0001E6B554BDA6A3A61534B1969F960524BC3
:102FF0005869B860504B9C697C604F4B1B68184601
:10300000FDF722FA804689464B4B9B681846FDF730
:103010001BFA82468B464C4BD3E900014B4BD3E95C
:10302000002307F5037507F11804CDE90C23CDE95A
:103030000A01CDE908ABCDE90689D7F804C0CDF87F
:1030400010C0B8680390F96802913A69019200963D
:103050007B692A463E49204601F022FC1CE03D4B9C
:1030600018683D4B19683D4B1A683D4B1C683D4B39
:103070001B68019307F1180300932346FEF798FCA1
:103080004FF47A70FFF716FB374B1B680133364A53
:103090001360344B01221A60334B1B68052BDED9B9
:1030A00000BF00233DE0234B1B68012B0CBF012315
:1030B0000023DAB21E4B1B68012B0CBF0123002337
:1030C000DBB21343DBB2002B0DD0FFF749FC2748DE
:1030D000FFF731FCFFF74EFC2548FFF72CFC4FF4BF
:1030E000FA60FFF7E7FA234B1B68002B3FF7FFADB1
:1030F000204B41F288321A600D4B00221A600C4BB3
:103100001B680C4A1360FFF72BFC1B48FFF713FCEE
:10311000FFF730FC1948FFF70EFC174801F0B8FB29
:10312000E5E5184607F50977BD46BDE8F08F00BF15
:103130006C0300206803002024030020807E000828
:1031400070030020A07E000830000020380000201E
:10315000B47E000844000020480000204000002009
:103160004C000020AC030020B0030020C87F000802
:10317000DC7F000850000020F07F00080480000879
:1031800080B500AF00F032F800F0A2F800F020F9AE
:1031900000F080FAFFF71EFC054B1B68054AA2FBF6
:1031A00003239B091846FFF717FD00BF80BD00BF32
:1031B00000000020D34D621080B582B000AF012125
:1031C0001020FEF781F91023FB714FF40053BB80F0
:1031D0000323BB713B1D19460348FDF7E3FD00BF08
:1031E0000837BD4680BD00BF0010014080B586B0E5
:1031F00000AF01210420FEF767F94FF40073BB8292
:103200001823FB750323BB7507F1140319462348E4
:10321000FDF7C8FD4FF48063BB820423FB7507F103
:10322000140319461D48FDF7BDFD01210420FDF7DB
:10323000ABFE01214FF48040FEF746F94FF41653E0
:103240007B6000233B8100237B810023BB810C2317
:10325000FB8100233B823B1D19461148FEF770F9A4
:103260004FF4A060FDF72AFD25233B700023BB70BF
:1032700000237B700123FB703B461846FDF730FDB1
:1032800040F225510648FEF7B6FA01210448FEF740
:1032900011FA00BF1837BD4680BD00BF00080140CD
:1032A0000038014080B500AF40F225510748FEF7D5
:1032B000B2FA0346012B02D1044800F00BFD40F2A4
:1032C00025510248FEF701FB00BF80BD00380140D8
:1032D00080B586B000AF01210420FEF7F5F8042385
:1032E000BB821823FB750323BB7507F11403194632
:1032F0002548FDF757FD0823BB820423FB7507F122
:10330000140319462048FDF74DFD01210820FDF763
:103310003BFE01214FF40030FEF7F4F84DF6C023D8
:103320007B6000233B8100237B810023BB810C2336
:10333000FB8100233B823B1D19461448FEF700F930
:103340004FF4A060FDF7BAFC26233B700023BB704E
:1033500000237B700123FB703B461846FDF7C0FC41
:1033600040F225510948FEF746FA012240F2255164
:103370000648FEF7BEF901210448FEF79BF900BF9D
:103380001837BD4680BD00BF000801400044004022
:1033900080B582B000AF40F225510C48FEF73BFAF1
:1033A0000346012B08D10948FEF7FBF90346FB71E0
:1033B000FB791846FFF75AFC40F225510348FEF707
:1033C00084FA00BF0837BD4680BD00BF00440040FE
:1033D00080B586B000AF01210820FEF775F84FF4E4
:1033E0008063BB821823FB750323BB7507F11403AD
:1033F00019462648FDF7D6FC4FF40063BB82042330
:10340000FB7507F1140319462048FDF7CBFC012199
:103410001F48FDF7B9FD01214FF48020FEF772F837
:103420004FF4E1337B6000233B8100237B81002349
:10343000BB810C23FB8100233B823B1D19461548B1
:10344000FEF77EF84FF4A060FDF738FC27233B70B1
:103450000023BB7000237B700123FB703B461846A2
:10346000FDF73EFC40F225510A48FEF7C4F901225F
:1034700040F225510748FEF73CF901210548FEF7C7
:1034800019F900BF1837BD4680BD00BF000C0140D0
:10349000300014000048004080B500AF40F22551D4
:1034A0000748FEF7B8F90346012B02D1044800F0A3
:1034B00011FC40F225510248FEF707FA00BF80BD1B
:1034C0000048004080B400AF00BFBD4680BC7047DC
:1034D00080B400AFFEE780B400AFFEE780B400AF79
:1034E000FEE780B400AFFEE780B400AF00BFBD468A
:1034F00080BC704780B400AF00BFBD4680BC704741
:1035000080B400AF00BFBD4680BC704780B400AF40
:103510000C4B1B889BB2002B06D00A4B1B889BB21E
:10352000013B9AB2074B1A80074B1B68002B04DD46
:10353000054B1B68013B044A136000BFBD4680BCBD
:10354000704700BFB80300205000002080B400AFD7
:1035500001231846BD4680BC704780B582B000AFDD
:103560007860396000F07CFC034616221A604FF048
:10357000FF3318460837BD4680BD80B582B000AF26
:1035800078604FF0FF317868FFF7E7FFFEE780B51E
:1035900086B000AFF860B9607A6000237B610AE012
:1035A000AFF300800146BB685A1CBA60CAB21A70F9
:1035B0007B6901337B617A697B689A42F0DB7B68C7
:1035C00018461837BD4680BD80B483B000AF786020
:1035D0004FF0FF3318460C37BD4680BC704780B4AF
:1035E00083B000AF786039603B684FF400525A6096
:1035F000002318460C37BD4680BC704780B483B0AA
:1036000000AF7860012318460C37BD4680BC704778
:1036100080B485B000AFF860B9607A6000231846C6
:103620001437BD4680BC704780B586B000AF786067
:10363000144A154BD31A7B617B693B61134B1B68A2
:10364000002B02D1114B124A1A60104B1A687B688A
:1036500013443A699A4207D200F002FC03460C2256
:103660001A604FF0FF3309E0084B1B68FB60074B03
:103670001A687B681344054A1360FB6818461837BC
:10368000BD4680BD0050002000040000B4030020AF
:103690000005002080B500AF114B124A1A60124B92
:1036A000124A1A60124B134A1A60134B134A1A60DB
:1036B000012260211248FEF71CF801226021114806
:1036C000FEF717F8012240F225510D48FEF711F8D8
:1036D000012240F225510B48FEF70BF800BF80BDD8
:1036E000DC040020BC030020E004002004040020CF
:1036F000E40400204C040020E8040020940400208E
:10370000003801400048004080B485B000AF034657
:103710003960FB713B681B6C013303F03F03FB60B6
:103720003B685A6CFB689A4207D03B681B6C3A684E
:10373000F979D154FA683B681A6400BF1437BD4662
:1037400080BC704780B485B000AF78607B68244A45
:1037500093421CD1234B1B681A6C224B1B685B6C79
:103760009A4202D14FF0FF3334E01E4B1A681D4BD2
:103770001B685B6CD35CBB731A4B1B685B6C5A1C7D
:10378000184B1B6802F03F025A64BB7B22E07B6847
:10379000154A93421CD1154B1B681A6C134B1B68BE
:1037A0005B6C9A4202D14FF0FF3313E00F4B1A6863
:1037B0000E4B1B685B6CD35CFB730C4B1B685B6C28
:1037C0005A1C0A4B1B6802F03F025A64FB7B01E063
:1037D0004FF0FF3318461437BD4680BC704700BF1A
:1037E00000380140DC04002000480040E4040020D0
:1037F00080B483B000AF78607B68164A93420ED1E4
:10380000154B1B681B6C9AB2134B1B685B6C9BB20D
:10381000D31A9BB240339BB203F03F0314E07B68A2
:103820000E4A93420ED10E4B1B681B6C9AB20C4B86
:103830001B685B6C9BB2D31A9BB240339BB203F004
:103840003F0301E04FF0FF3318460C37BD4680BC04
:10385000704700BF00380140DC04002000480040F1
:10386000E404002080B584B000AF786039607868E7
:10387000FCF77EFCB8600023FB6013E07A68FB680D
:1038800013441B789BB219460B48FDF779FF00BF24
:1038900040210948FDF794FF0346002BF8D0FB6850
:1038A0000133FB60FA68BB689A42E7D300BF00BFF0
:1038B0001037BD4680BD00BF0048004080B582B0D3
:1038C00000AF78607B68144A93420ED1134B1B689B
:1038D00040220021184600F0EDFA104B1B68002230
:1038E0001A640E4B1B6800225A647B680C4A934290
:1038F0000ED10C4B1B6840220021184600F0DAFA6A
:10390000084B1B6800221A64064B1B6800225A648D
:1039100000BF0837BD4680BD00380140DC040020F0
:1039200000480040E404002080B483B000AF786019
:103930007B68194A934211D1184B1B681A6C174BBC
:103940001B685B6C9A4202D14FF0FF331EE0134BB1
:103950001A68124B1B685B6CD35C17E07B68104ADB
:10396000934211D10F4B1B681A6C0E4B1B685B6C9A
:103970009A4202D14FF0FF3308E00A4B1A68094B14
:103980001B685B6CD35C01E04FF0FF3318460C37CB
:10399000BD4680BC704700BF00380140DC040020F9
:1039A00000480040E404002080B588B000AFF86013
:1039B000B9607A600023FB61F868FCF7D9FB034625
:1039C0007B610023BB6100BF7868FFF711FF0346EE
:1039D000002BF9D042E07B68494A93421DD1494B04
:1039E0001968484B1B685A6CBB69B86803448A5C09
:1039F0001A70444B1B685B6C5A1C424B1B6802F0EC
:103A00003F025A64BB690133BB6100BF3C48FFF70A
:103A1000EFFE0346002BF9D020E07B683A4A934240
:103A20001CD13A4B1968394B1B685A6CBB69B86892
:103A300003448A5C1A70354B1B685B6C5A1C334B11
:103A40001B6802F03F025A64BB690133BB6100BFCF
:103A50002D48FFF7CDFE0346002BF9D07868FFF71D
:103A600063FF0146FB69FA6813441B789942B2D19F
:103A700029E0FB690133FB617868FFF763FE0146CB
:103A8000BB695A1CBA611A46BB681344CAB21A70A1
:103A9000FA697B699A4201D101232DE01C4B4FF456
:103AA000FA721A8000BF7868FFF7A2FE0346002B67
:103AB00003D1174B1B88002BF5D1154B1B88002B0E
:103AC00001D1002318E07868FFF72EFF0146FB695B
:103AD000FA6813441B789942CBD0FA697B699A4201
:103AE00002D00023FB616EE7FA697B699A4201D13B
:103AF000012301E04FF0FF3318462037BD4680BD5B
:103B000000380140DC04002000480040E4040020AC
:103B1000B803002080B584B000AF7860396000231E
:103B2000FB607868FCF724FB0346BB60634B4FF4F3
:103B3000FA721A8000BF3868FFF75AFE0346002B5E
:103B400003D15E4B1B88002BF5D15C4B1B88002BEF
:103B500031D10023AEE03B68594A934213D1594B0F
:103B60001B685A6C574B1B681B6C9A4209D0554B0B
:103B70001B685B6C5A1C534B1B6802F03F025A6473
:103B800019E0002396E03B684F4A934213D14F4B14
:103B90001B685A6C4D4B1B681B6C9A4209D04B4BEF
:103BA0001B685B6C5A1C494B1B6802F03F025A644D
:103BB00001E000237EE03868FFF7B6FE0146FB68AF
:103BC0007A6813441B789942C5D155E03B683C4A5A
:103BD000934226D1FB680133FB603A4B1B685B6C58
:103BE0005A1C384B1B6802F03F025A64FA68BB68E3
:103BF0009A4201D101235DE0304B4FF4FA721A80F2
:103C000000BF3868FFF7F4FD0346002B03D12B4BB0
:103C10001B88002BF5D1294B1B88002B2CD10023AE
:103C200048E03B68284A934226D1FB680133FB6099
:103C3000264B1B685B6C5A1C244B1B6802F03F022E
:103C40005A64FA68BB689A4201D1012332E01B4BE7
:103C50004FF4FA721A8000BF3868FFF7C9FD0346B7
:103C6000002B03D1154B1B88002BF5D1134B1B8860
:103C7000002B01D100231DE03868FFF755FE0146F7
:103C8000FB687A6813441B7899429FD0FA68BB6836
:103C90009A4202D00023FB6048E7FA68BB689A4268
:103CA00004D10B4800F0F4FD012303E0084800F0C4
:103CB000EFFD002318461037BD4680BDB803002035
:103CC00000380140DC04002000480040E4040020EB
:103CD0001880000880B586B000AF78607B681B88CC
:103CE0009BB27B617B689B899BB23B617B6903F0E4
:103CF0002003002B22D03B6903F02003002B1DD0B2
:103D00007B681B887B689B889BB2FB737B68374A08
:103D1000934207D1364B1A68FB7B11461846FFF7D2
:103D2000F3FC5CE07B68334A934258D1324B1A680B
:103D3000FB7B11461846FFF7E7FC50E07B6903F078
:103D40008003002B4ED03B6903F08003002B49D049
:103D50007B68264A93421ED1284B1A6C274B5B6C1A
:103D60009A4206D1002240F227712048FDF7C1FC9B
:103D700011E0224B5B6C214AD35CBB731F4B5B6C25
:103D8000013303F03F031D4A53647B681B88BB7BF0
:103D90009AB27B689A807B68164A934221D1184B6D
:103DA0001A6C174B5B6C9A4206D1002240F22771C5
:103DB0001048FDF79EFC14E0114B5B6C104AD35C7D
:103DC0007B730F4B5B6C013303F03F030C4A53646E
:103DD0007B681B887B7B9AB27B689A8001E000BF7E
:103DE00000E000BF1837BD4680BD00BF003801406D
:103DF000DC04002000480040E4040020040400200B
:103E0000940400200D488546FCF79EFE0C480D49A1
:103E10000D4A002302E0D458C4500433C4188C4225
:103E2000F9D30A4A0A4C002301E013600432A2428B
:103E3000FBD300F01BF8FEF733FFFEE70050002035
:103E400000000020240200204884000824020020F2
:103E5000FC040020FEE70A22002100F0BDBD0000A6
:103E6000014B1868704700BF5400002070B5002651
:103E70000C4D0D4C641BA410A64209D103F0F2FEB8
:103E800000260A4D0A4C641BA410A64205D170BD41
:103E900055F8043B98470136EEE755F8043B984740
:103EA0000136F2E74084000840840008408400089E
:103EB0004484000803460244934200D1704703F84B
:103EC000011BF9E7002B2DE9F0471F46BBBF03F1AB
:103ED00000431F4600232D2388B01446129A109DDC
:103EE0001370149BDDF84CA023F02008B8F1460FA6
:103EF00005D0B8F1450F00D10135022300E00323BE
:103F000007AA049206AACDE902A2CDE9003522460D
:103F10003B4600F0B9FEB8F1470F064602D1119BAF
:103F2000DB0722D5B8F1460F06EB050910D133782F
:103F3000302B0AD10022002320463946FCF744FDED
:103F400018B9C5F10105CAF80050DAF800309944F3
:103F50000022002320463946FCF736FD08B1CDF893
:103F60001C903022079B4B4507D33046079B159A80
:103F70009B1B136008B0BDE8F087591C07911A70AD
:103F8000F0E70346F7B5002903F8022BB6BF2D2250
:103F90002B224942092942702BDD0DF10704A4466A
:103FA0000A2791FBF7F60A46A64607FB1615632A71
:103FB00005F13005314604F1FF340EF8015CF0DC08
:103FC0003031AEF1020504F8011C2946441C61455C
:103FD0000AD30DF10902A2EB0E02654588BF00224B
:103FE0001344181A03B0F0BD11F8012B04F8012F87
:103FF000EDE7302330318370C170031DF1E700001D
:104000002DE9F04F91B00C46DDF8688016461F464A
:10401000054601F0DBFD036818460993FCF7A8F894
:1040200000230E93D8F800300A90073323F00703DB
:1040300003F1080294F81890D4F800B0C8F80020F2
:10404000D3E90023C4E91223D4E9128A2AF00043F9
:104050000B934FF0FF3240469C4B0B99FCF7E6FC6C
:1040600070BB4FF0FF324046984B0B99FCF7C0FCF9
:1040700030BB0022002340465146FCF7AFFC10B194
:104080002D2384F84330924B9248B9F1470F94BFE7
:104090009846804603234FF0000A23612BF0040367
:1040A000236033462146284600970FAA00F0D4F932
:1040B000013040F090804FF0FF3011B0BDE8F08F3C
:1040C0004246534640465146FCF7B0FC48B1BAF16F
:1040D000000FB8BF2D238048B8BF84F843307F4B12
:1040E000D3E7636809F0DF015A1C42D106236360FD
:1040F000002206920EAACDE904920DAA4BF4806329
:1041000003920DF13302CDE9013223606368424628
:104110000093284653460B91FFF7D4FE0B99804637
:1041200047290D9908D1C81C02DB6368994240DD1C
:10413000A9F102095FFA89F9B9F1650F1FD84A465A
:10414000013904F150000D91FFF71BFF0E9A8246D2
:104150001318012A236102DC2268D20701D501333A
:1041600023619DF83330002B9BD02D2384F84330FE
:1041700097E74729BCD1002BBAD10123B7E7B9F1A2
:10418000660F18D1002963680BDD216113B922681D
:10419000D00702D501330B4423614FF0000AA1651B
:1041A000DFE713B92268D20701D50233F4E7012310
:1041B000F2E74FF067090E9B994205DB2368216106
:1041C000D807EAD54B1CE7E70029CCBF0122C1F193
:1041D00002021344E0E723685A0507D423694246E4
:1041E00031462846B84701302BD164E7B9F1650F55
:1041F00040F2DD80D4E9120100220023FCF7E4FB49
:10420000002833D0012331462846354AB8470130CB
:104210003FF451AFDDE90D239A4202DB2368D80752
:104220000FD5DDE9092331462846B84701303FF470
:1042300042AF4FF0000804F11A090E9B013B4345C1
:1042400009DC23689B0700F10281E0680F9B98421C
:10425000B8BF184631E701234A4631462846B847D9
:1042600001303FF428AF08F10108E6E70D9B002B71
:1042700038DC012331462846194AB84701303FF45B
:104280001AAFDDE90D23134302D12368D907D8D52E
:10429000DDE9092331462846B84701303FF40BAF2A
:1042A0004FF0000904F11A0A0D9B5B424B4501DCFB
:1042B0000E9B94E70123524631462846B847013009
:1042C0003FF4F9AE09F10109EEE700BFFFFFEF7F10
:1042D00030800008348000083C80000838800008E6
:1042E000408000080E9AA36D9A42A8BF1A46002A81
:1042F000914637DC4FF0000B29EAE97904F11A0204
:10430000D4F858A0AAEB09035B4533DCDDE90D23A3
:104310009A423BDB2368DA0738D40E9B0D99A3EB56
:104320000A02A3EB01099145A8BF9146B9F1000F1C
:1043300034DC4FF0000829EAE97904F11A0ADDE9D2
:104340000D239B1AA3EB090343457FF77AAF0123A3
:10435000524631462846B84701303FF4ACAE08F12A
:104360000108ECE71346314642462846B84701307B
:10437000C0D1A0E60123314628460B92B847013050
:104380003FF499AE0B9A0BF1010BB9E73146DDE929
:1043900009232846B8470130BFD18CE64B46314649
:1043A000284608EB0A02B8470130C2D183E60E9ACC
:1043B000012A01DCDB0737D5012342463146284676
:1043C000B84701303FF477AEDDE90923314628468E
:1043D000B84701303FF46FAED4E912010022002348
:1043E000FCF7F2FAD8B90E9B08F10102013B314605
:1043F0002846B84701300ED15DE601234A463146D2
:104400002846B84701303FF456AE08F101080E9B2C
:10441000013B4345F1DC534604F15002E0E64FF026
:10442000000804F11A09F2E701234246DFE70123FD
:104430004A4631462846B84701303FF43CAE08F1C1
:104440000108E3680F995B1A4345F0DCFDE64FF085
:10445000000804F11909F4E72DE9F04716469946DA
:104460008A680B6907469342B8BF1346336091F8D8
:1044700043200C46DDF820800AB101333360236805
:10448000990642BF336802333360256815F006058C
:1044900006D104F1190AE36832689B1AAB4228DCA2
:1044A00094F84320131E226818BF012392062DD4CE
:1044B0004946384604F14302C047013020D0236802
:1044C000E56803F00603042B18BF002532684FF09F
:1044D0000006A36808BFAD1A226908BF25EAE57582
:1044E0009342C4BF9B1AED181A34B5421AD100206A
:1044F00008E00123524649463846C047013003D1FF
:104500004FF0FF30BDE8F0870135C4E73020E118F7
:1045100081F843005A1C94F845102244023382F873
:104520004310C5E70123224649463846C0470130BB
:10453000E6D00136D9E700002DE9FF470F7E91460E
:10454000782F80460C469A460C9D01F1430207D80D
:10455000622F0AD8002F00F0D980582F00F0A480D5
:1045600004F1420584F842703AE0A7F16303152B89
:10457000F6D801A151F823F0D1450008E54500081F
:104580006145000861450008614500086145000873
:10459000E5450008614500086145000861450008DF
:1045A00061450008F346000815460008D546000896
:1045B000614500086145000815470008614500088D
:1045C000154600086145000861450008DD46000801
:1045D0002B681A1D1B682A6004F1420584F84230DA
:1045E0000123A4E020682968060601F104030AD526
:1045F0000E682B60002E03DA2D23764284F84330B8
:104600000A235E4819E00E6810F0400F2B6018BFB7
:1046100036B2EFE72B682068191D2960010601D525
:104620001E6802E04606FBD51E886F2F0CBF0823CC
:104630000A235248002184F843106568002DA8BF62
:104640002168A560A4BF21F0040121600EB9002DEE
:104650004DD01546B6FBF3F103FB1167C75D05F8B6
:10466000017D3746BB420E46F4D9082B0BD1236897
:10467000DE0708D5236961689942DEBF302305F85B
:10468000013C05F1FF35521B22614B462146404655
:10469000CDF800A003AAFFF7DFFE01304CD14FF0A8
:1046A000FF3004B0BDE8F087344881F845702968D0
:1046B000236851F8046B29601D0614D5DF0744BF39
:1046C00043F0200323601EB9236823F020032360F6
:1046D0001023AFE7236843F02003236078232848A2
:1046E00084F84530E3E7590648BFB6B2E6E7154619
:1046F000BBE72B682668181D6169286035061B68B2
:1047000001D5196002E07006FBD51980002315461B
:104710002361BAE72B6800211A1D2A601D686268B0
:10472000284601F0C7FA08B1401B60606368236146
:10473000002384F84330A8E72A46494640462369C7
:10474000D0470130ABD023689B0713D4E068039BAC
:104750009842B8BF1846A4E701233246494640466E
:10476000D04701309BD00135E36803995B1AAB4217
:10477000F2DCEBE7002504F11906F5E742800008BA
:10478000538000080FB40A4B13B51C6824B1A36909
:1047900013B9204601F07CF905AB2046049AA168C4
:1047A000019302F099F802B0BDE8104004B07047E0
:1047B0005400002070B50E46054618B183690BB948
:1047C00001F066F9AB69AC6813B9284601F060F9ED
:1047D0002C4B9C4220D16C68636EDB0705D4A38907
:1047E000980502D4A06D01F0F6F9A38919071DD52B
:1047F0002369DBB1013EA36816F8011F013BA360EA
:1048000039BB002B38DA22460A21284600F0EEF8A0
:10481000013011D00A2511E01B4B9C4201D1AC683C
:10482000DAE71A4B9C4208BFEC68D5E721462846D8
:1048300000F02EF90028DDD04FF0FF35636EDA0767
:1048400005D4A3899B0502D4A06D01F0C5F92846C3
:1048500070BD002B04DAA2699A4206DC0A2904D052
:1048600023685A1C22601970C5E72246284600F0CA
:10487000BDF80130BFD1DFE70A2523685A1C22604A
:104880001D70DBE71882000838820008F8810008F4
:10489000024B01461868FFF78DBF00BF540000208F
:1048A0000EB46FF0004100B59CB01DAB02900690B5
:1048B000079104910848094953F8042B05910068B1
:1048C00002A9019301F0E0FE0022029B1A701CB0C5
:1048D0005DF804EB03B07047540000200802FFFFAE
:1048E000012B2DE9F047804601D0242B06D9FFF794
:1048F000B7FA162303600020BDE8F0870D46354F58
:10490000284615F8014BE65D16F00806F8D12D2C67
:104910002FD101262C78851C002B57D0102B09D1C4
:10492000302C07D1287800F0DF00582849D1102317
:104930006C780235002706F1004E0EF1FF3EBEFBFB
:10494000F3F9384603FB19EAA4F1300CBCF1090F66
:1049500014D86446A34222DD002F1DDB81451BD302
:1049600001D1A24518DB012700FB034015F8014BDC
:10497000EAE72B2C04BF2C78851CCDE7A4F1410C71
:10498000BCF1190F01D8373CE4E7A4F1610CBCF18C
:10499000190F04D8573CDDE74FF0FF37E6E7002F4B
:1049A00007DA22237046C8F80030002AA4D0691E16
:1049B00005E006B14042002A9ED0002FF7D11160D9
:1049C0009AE73024002BB5D10823B3E7302CA9D0C7
:1049D0000A23AFE76580000813460A4601460248ED
:1049E0000068FFF77DBF00BF54000020F8B50E46F9
:1049F0001446054618B183690BB901F049F8214BFB
:104A00009C422BD16C68A369A360A3891A072FD598
:104A100023696BB323692068F6B2C01A636937460D
:104A2000834204DC2146284600F09EFF30BBA36889
:104A30000130013BA36023685A1C22601E70636929
:104A4000834204D0A389DB0706D50A2E04D1214670
:104A5000284600F089FF88B93846F8BD0A4B9C42C9
:104A600001D1AC68CFE7094B9C4208BFEC68CAE7AC
:104A70002146284600F00CF80028CBD04FF0FF3735
:104A8000EAE700BF1882000838820008F8810008B1
:104A9000324B70B51D6806460C4625B1AB6913B99B
:104AA000284600F0F5FF2E4B9C420FD16C68A3897D
:104AB000B4F90C2019072CD4DD0611D40923336076
:104AC00042F040034FF0FF30A3813EE0254B9C4273
:104AD00001D1AC68EBE7244B9C4208BFEC68E6E7E9
:104AE000580712D5616B41B104F14403994202D0D9
:104AF000304601F091FC00236363A38923F0240373
:104B0000A3810023636023692360A38943F0080322
:104B1000A38123694BB9A38903F42073B3F5007F04
:104B200003D02146304601F07DF8A089B4F90C206D
:104B300010F001030AD00023A36063695B42A36104
:104B4000236943B910F08000BAD170BD810758BF06
:104B50006369A360F4E70020F7E700BF540000207A
:104B60001882000838820008F88100082DE9F74F04
:104B700003690C690746A342C0F28280013C00F140
:104B8000140501F1140805EB8403019358F824304F
:104B900055F8242001339A42B2FBF3F64FEA840B16
:104BA00008EB840931D34FF0000E4046AC46F24684
:104BB00050F8042B93B206FB03E3120C4FEA134E9A
:104BC0009BB206FB02E2AAEB0303DCF800A04FEA6B
:104BD000124E1FFA8AFA5344DCF800A092B2C2EBDC
:104BE0001A4202EB23429BB243EA024381454FEA59
:104BF000224A4CF8043BDBD255F80B302BB9019B11
:104C0000043B9D421A462FD33C61384601F0ECFA32
:104C1000002825DB28464FF0000C013658F8041B0D
:104C2000D0F800E08BB2ACEB03031FFA8EF2134412
:104C30000A0CC2EB1E4202EB23429BB243EA024340
:104C4000C1454FEA224C40F8043BE7D255F82420F6
:104C500005EB840322B9043B9D421A460AD33C610A
:104C6000304603B0BDE8F08F1268043B002ACBD178
:104C7000013CC6E71268043B002AF0D1013CEBE797
:104C80000020EEE7000000002DE9F04F16461F4619
:104C9000446A99B00546CDE90467DDF8948074B99B
:104CA000102000F0FFFF0246686220B9EA21A84BFD
:104CB000A84801F0A7FFC0E901440460C4606B6A22
:104CC000196851B15A68012393404A608B602846A5
:104CD00001F04CF800226B6A1A603B1EAFBF002344
:104CE000012223F000430593A8BFC8F80030DDF887
:104CF0001490994BB8BFC8F8002033EA090319D1C2
:104D000042F20F73249A1360C9F31303334300F084
:104D10007F85269B53B9914B22E0914B0393083337
:104D2000269A1360039819B0BDE8F08F8B4B03935C
:104D30000333F5E7DDE90434CDE90C34DDE90C019A
:104D400000220023FBF740FE804658B10123249A3D
:104D50001360269B002B00F0588582481860431E84
:104D60000393DFE716AB019317AB00932846DDE909
:104D70000C2301F0E1FAC9F30A548346002C7FD0DA
:104D8000DDE90C010D9BA4F2FF34C3F3130343F0E0
:104D90007F5141F44011CDF84C800022724BFBF75B
:104DA000F3F965A3D3E90023FBF7A6FB64A3D3E9DA
:104DB0000023FBF7EBF9064620460F46FBF732FBD4
:104DC00061A3D3E90023FBF797FB02460B4630466D
:104DD0003946FBF7DBF906460F46FBF73DFE00229E
:104DE0008246002330463946FBF7F8FD48B150466D
:104DF000FBF718FB32463B46FBF7E6FD08B90AF124
:104E0000FF3ABAF1160F58D8DDE90C01574B03EB06
:104E1000CA03D3E90023FBF7E1FD00284FD00023AC
:104E20000AF1FF3A0F93169B1C1B631E099349BF9F
:104E3000C4F1010300230693002354BF0693099392
:104E4000BAF1000F3DDB099BCDF838A0534409931C
:104E500000230A93229B092B00F28C80052BC4BFF0
:104E6000043B2293229BC8BF0024A3F10203D8BFB6
:104E70000124032B00F28A80DFE803F02D4F4D5B05
:104E8000DDE916431C4404F23243202BC3BFC3F1B7
:104E9000400304F2124009FA03F3C3F12003C6BF32
:104EA00026FA00F0184306FA03F0FBF7ABFA0123E9
:104EB000A1F1F871013C13936FE70123B2E70F9062
:104EC000B1E7069BA3EB0A030693CAF100030A931A
:104ED00000230E93BEE700230B93239B002B58DC8B
:104EE0004FF001094B46CDF82090CDF88C90002270
:104EF000686A4260042202F114069E4241684ED95B
:104F0000284600F0F3FE039000284CD102464FF4EF
:104F1000D571174BCCE60123DEE700230B93239BCF
:104F20000AEB030909F10103012B0893B8BF012320
:104F3000DDE70123F2E700BF61436F63A787D23F3C
:104F4000B3C8608B288AC63FFB799F501344D33F78
:104F500072810008898100080000F07F6E810008DE
:104F600065810008418000080000F83FE0820008E9
:104F7000E4810008012400230B9422934FF0FF39B1
:104F800000221223CDF820902392B0E701230B9347
:104F9000F4E7DDF88C904B46CDF82090A7E701317F
:104FA00041605200A7E76B6A039A1A60089B0E2BB8
:104FB00000F2A880002C00F0A580BAF1000F34DDCB
:104FC0009A4A0AF00F0302EBC3031AF4807FD3E975
:104FD0000034CDE910344FEA2A1416D0DDE90C0173
:104FE000934B0327D3E90823FBF7B0FBCDE904017A
:104FF00004F00F048E4E54B9DDE91023DDE90401FD
:10500000FBF7A4FBCDE9040129E00227F2E7E10761
:1050100008D5DDE91001D6E90023FBF76DFACDE9EB
:105020001001013764100836E5E700F0A580DDE9DE
:105030000C01CAF100047D4B04F00F0203EBC20324
:10504000D3E90023FBF758FA02270023CDE9040136
:10505000774E2411002C40F08480002BD2D10F9B7E
:10506000002B00F08B80DDE90434CDE91034DDE95C
:10507000100100226F4BFBF7B1FC00287ED0089B8B
:10508000002B7BD0B9F1000F38DDDDE910010022E3
:10509000694BFBF731FA4C46CDE904010AF1FF38C0
:1050A00001373846FBF7BEF9DDE90423FBF724FAA4
:1050B0000022624BFBF76AF8A1F15076CDE91001AE
:1050C0001196002C5DD1DDE9040100225C4BFBF759
:1050D0005BF802460B46CDE904233346109AFBF7F2
:1050E0009BFC002840F09C82DDE90401109A06F147
:1050F0000043FBF773FC002840F09082DDE90C349C
:10510000CDE90434179B002BC0F25281BAF10E0F87
:1051100000F34E81454B03EBCA03D3E90034CDE9DC
:105120000634239B002B80F2DB80089B002B00F3CE
:10513000D78040F07282DDE906010022404BFBF788
:10514000DBF9DDE90423FBF75DFC089C264600281B
:1051500040F048823123039F0AF1010A07F8013B1E
:1051600044E2E20705D5D6E90023FBF7C5F90123A0
:105170000137641008366DE7022770E7D046089CB7
:105180008FE70399294B214412910B9903EBC40338
:10519000DDE9106753E90223002955D00020294991
:1051A000FBF7D4FA3B463246FAF7EEFFCDE91001A1
:1051B000039FDDE90401FBF74FFC0446FBF732F9DE
:1051C00002460B46DDE90401FAF7DEFF02460B4614
:1051D0003034CDE90423DDE9102307F8014BFBF758
:1051E000FDFB002874D1DDE9042300201149FAF702
:1051F000CBFFDDE91023FBF7F1FB002840F0B7807F
:10520000129B9F423FF47AAFDDE9100100220A4B66
:10521000FBF772F90022CDE91001DDE90401064B2C
:10522000FBF76AF9CDE90401C3E700BFE08200089B
:10523000B88200080000F03F0000244000001C403D
:10524000000014400000E03F30463946FBF754F9B7
:10525000129BCDE91001039C1493DDE90401FBF7D7
:10526000FBFB1590FBF7DEF802460B46DDE9040177
:10527000FAF78AFF159B0646303304F8013B129B70
:105280000F469C424FF0000224D1DDE91001B04BE3
:10529000FAF77CFF02460B4630463946FBF7BCFB6B
:1052A000002863D1DDE910230020A949FAF76CFF3B
:1052B00002460B4630463946FBF790FB00283FF488
:1052C0001DAF149F7B1E149317F8013C302BF8D0B0
:1052D000C2463BE09F4BFBF70FF9CDE90401BCE769
:1052E000039FDDE90489DDE9062340464946FBF7D3
:1052F0002DFAFBF7B1FB0446FBF794F8DDE9062332
:10530000FBF7FAF802460B4640464946FAF73CFFDF
:1053100004F1300607F8016B039EDDF820C0BE1BC8
:10532000B44502460B4636D1FAF730FFDDE90623D5
:1053300080468946FBF770FB58BBDDE906234046F3
:105340004946FBF741FB08B1E10722D428465946FC
:1053500000F00CFD00233B70249B0AF10100186053
:10536000269B002B3FF4DEAC1F60DBE427463B4668
:105370001F4613F8012D392A07D1039A9A42F7D113
:105380003022039908F101080A701A7801321A7064
:105390009EE7D046EBE700226E4BFBF7ADF800220C
:1053A000002380468946FBF70FFB00289BD0CDE702
:1053B0000B9A002A00F0D080229A012A00F3AE80D6
:1053C000139A002A00F0A68003F233430A9C069F3A
:1053D000069A01211A440692099A28461A4409920B
:1053E00000F07AFD0646002F0CDD099B002B09DD3D
:1053F000BB42A8BF3B46069AFF1AD21A0692099AE8
:10540000D31A09930A9BF3B10B9B002B00F0A880E1
:10541000002C10DD31462246284600F01BFE5A467D
:1054200001460646284600F06DFD8046594628464E
:1054300000F09CFCC3460A9B1A1B04D05946284620
:1054400000F008FE83460121284600F045FD0E9B32
:105450000446002B40F386801A460146284600F099
:10546000F9FD229B0446012B7FDD4FF000082369E4
:1054700004EB8303186900F0E1FCC0F12000099BF4
:10548000184410F01F0000F09280C0F12003042B9C
:1054900040F38A80C0F11C00069B07440344069336
:1054A000099B03440993069B002B05DD59461A46C8
:1054B000284600F029FE8346099B002B05DD214686
:1054C0001A46284600F020FE04460F9B002B70D0A1
:1054D0002146584600F088FE00286ADA0023594623
:1054E0000A22284600F064FC0B9B83460AF1FF3A2F
:1054F000002B00F09481314600230A22284600F058
:1055000057FCB9F1000F064600F39380229B022B53
:1055100057DC8EE0169BC3F1360357E7089B5C1EF1
:105520000A9BA342B7BF0A9B1C1BE21A0E9BBEBF7D
:105530000A949B180E93089BB8BF0024002BBBBF96
:10554000069B089A069F9F1AACBF089B00233FE763
:105550000000E03F000024400A9C069F0B9E42E7AB
:105560000A9A6BE7229B012B19DC049BBBB9059BB4
:10557000C3F313039BB9059B23F000431B0D1B05CD
:1055800083B14FF00108069B01330693099B013359
:1055900009930E9B002B7FF46AAF01206FE74FF059
:1055A0000008F6E79846F4E73FF47DAF18461C3054
:1055B00072E7089B002B36DC229B022B33DDDDF8E3
:1055C0002090B9F1000F0DD121464B460522284607
:1055D00000F0EEFB01460446584600F005FE0028A8
:1055E0003FF7B8AD239B039F6FEA030A4FF0000813
:1055F0002146284600F0BAFB002E3FF4A7AEB8F1D2
:10560000000F05D0B04503D04146284600F0AEFB60
:105610003146284600F0AAFB98E600242646E1E73A
:10562000C246264696E50B9BDDF82090002B00F045
:10563000FD80002F05DD31463A46284600F064FD26
:105640000646B8F1000F5CD02846716800F04EFBAA
:10565000074628B9024640F2EA217F4BFFF728BBF4
:10566000326906F10C01023292000C3000F030FB7E
:1056700001223946284600F047FDB0460646039B06
:1056800001330893039B4B440A93049B03F00103EB
:105690000993089B2146013B58460493FFF766FA9D
:1056A000034641463033069058460B9300F09CFD6C
:1056B000324681462146284600F0B2FDC2680746C0
:1056C0000B9B02BB0146584600F08EFD02460B9B29
:1056D00039462846CDE90B3200F048FB229B0C9A54
:1056E000089F43EA0201099B0B430B9B0DD1392B09
:1056F00029D0B9F1000F01DD069B3133049A1370F4
:1057000076E73046B9E70122E2E7B9F1000F06DBA0
:10571000229941EA0909099959EA010120D1002A8F
:10572000ECDD594601222846089300F0EDFC2146A5
:10573000834600F059FD0028089B02DCDED1DA0721
:10574000DCD5392BD8D13923049A13703B461F4638
:1057500017F8012C013B392A50D001321A7047E763
:10576000002A03DD392BEED00133C7E7089A0A99E6
:1057700002F8013C8A422AD0594600230A222846D0
:1057800000F016FBB04583464FF000034FF00A02CD
:105790004146284607D100F00BFB80460646089B91
:1057A0000133089375E700F003FB31468046002380
:1057B0000A22284600F0FCFA0646F0E7B9F1000F8D
:1057C000CCBF4F4601274FF00008039A17445946B3
:1057D00001222846089300F097FC2146834600F0FA
:1057E00003FD0028B2DC02D1089BDB07AED43B46A8
:1057F0001F4613F8012D302AFAD0F9E6039A9A428F
:10580000A5D131230AF1010A79E7144BFFF7A8BAB1
:10581000269B002B7FF481AA114BFFF7A1BAB9F1A7
:10582000000F03DC229B022B3FF7CBAE039F2146E8
:105830005846FFF79BF9039A00F1300307F8013B44
:10584000BA1A9145BADD594600230A22284600F0CB
:10585000AFFA8346EBE700BFE48100084080000810
:10586000658100088A89F8B5054610070C4657D4AB
:105870004B68002B04DC0B6C002B01DC0020F8BD16
:10588000E66A002EFAD0002312F480522F682B60B3
:1058900032D0606DA3895A0705D56368C01A636B5F
:1058A0000BB1236CC01A00230246E66A2846216A1F
:1058B000B047431CA38906D129681D292CD8294A41
:1058C000CA40D60728D5002262602269D904226026
:1058D00004D5421C01D12B6803B96065616B2F6050
:1058E0000029CBD004F14403994202D0284600F0AD
:1058F00093FD00206063C2E7216A01232846B04778
:10590000411CC7D12B68002BC4D01D2B01D0162BF6
:1059100001D12F60B2E7A38943F04003A381AEE732
:105920000F69002FAAD0930718BF00230E6808BF85
:105930004B69F61B0F608B60002E9FDD33463A46A5
:105940002846216AD4F828C0E047002806DCA3894D
:105950004FF0FF3043F04003A38190E70744361A2D
:10596000EAE700BF0100402038B50B6905460C4648
:1059700013B90025284638BD18B183690BB900F06A
:1059800087F8144B9C421BD16C68B4F90C30002B87
:10599000EFD0626ED00704D4990502D4A06D00F058
:1059A0001AF928462146FFF75DFF636E0546DA07C0
:1059B000E0D4A3899B05DDD4A06D00F00DF9D9E7F3
:1059C000054B9C4201D1AC68DFE7044B9C4208BF09
:1059D000EC68DAE71882000838820008F8810008CD
:1059E000002310B50446C0E90033C0E904338360E6
:1059F00081814366C2818361194608225C30FEF7CB
:105A000059FA054B24626362044BA362044BE362C0
:105A1000044B236310BD00BF596B00087B6B00086B
:105A2000B36B0008D76B0008014900F0AFB800BFA6
:105A300069590008682270B54D1E55430E4605F1A0
:105A4000740100F051FD044640B10021C0E9001688
:105A50000C30A06005F16802FEF72CFA204670BDFC
:105A6000014800F0B8B800BFED040020014800F084
:105A7000B3B800BFED040020014800F0ACB800BF8F
:105A8000EE040020014800F0A7B800BFEE0400209B
:105A900010B50446FFF7F0FFA3691BB1BDE8104045
:105AA000FFF7F0BFC4E912332365134B134A1B6899
:105AB000A262A34208BF0123204608BFA36100F0F1
:105AC0001FF86060204600F01BF8A060204600F040
:105AD00017F800220421E0606068FFF781FF0122CF
